{
  "contractName": "AIMarketplace",
  "abi": [
    {
      "inputs": [
        {
          "internalType": "address",
          "name": "_tokenAddress",
          "type": "address"
        }
      ],
      "stateMutability": "nonpayable",
      "type": "constructor"
    },
    {
      "anonymous": false,
      "inputs": [
        {
          "indexed": true,
          "internalType": "uint256",
          "name": "id",
          "type": "uint256"
        },
        {
          "indexed": true,
          "internalType": "address",
          "name": "seller",
          "type": "address"
        }
      ],
      "name": "ModelCreated",
      "type": "event"
    },
    {
      "anonymous": false,
      "inputs": [
        {
          "indexed": true,
          "internalType": "uint256",
          "name": "id",
          "type": "uint256"
        }
      ],
      "name": "ModelDeleted",
      "type": "event"
    },
    {
      "anonymous": false,
      "inputs": [
        {
          "indexed": true,
          "internalType": "uint256",
          "name": "id",
          "type": "uint256"
        },
        {
          "indexed": true,
          "internalType": "address",
          "name": "buyer",
          "type": "address"
        }
      ],
      "name": "ModelPurchased",
      "type": "event"
    },
    {
      "anonymous": false,
      "inputs": [
        {
          "indexed": true,
          "internalType": "uint256",
          "name": "id",
          "type": "uint256"
        },
        {
          "indexed": false,
          "internalType": "uint256",
          "name": "rating",
          "type": "uint256"
        },
        {
          "indexed": true,
          "internalType": "address",
          "name": "rater",
          "type": "address"
        }
      ],
      "name": "ModelRated",
      "type": "event"
    },
    {
      "inputs": [],
      "name": "modelCount",
      "outputs": [
        {
          "internalType": "uint256",
          "name": "",
          "type": "uint256"
        }
      ],
      "stateMutability": "view",
      "type": "function",
      "constant": true
    },
    {
      "inputs": [
        {
          "internalType": "uint256",
          "name": "",
          "type": "uint256"
        }
      ],
      "name": "models",
      "outputs": [
        {
          "internalType": "uint256",
          "name": "id",
          "type": "uint256"
        },
        {
          "internalType": "string",
          "name": "name",
          "type": "string"
        },
        {
          "internalType": "string",
          "name": "description",
          "type": "string"
        },
        {
          "internalType": "uint256",
          "name": "price",
          "type": "uint256"
        },
        {
          "internalType": "address",
          "name": "seller",
          "type": "address"
        },
        {
          "internalType": "string",
          "name": "fileLink",
          "type": "string"
        },
        {
          "internalType": "bool",
          "name": "isSold",
          "type": "bool"
        },
        {
          "internalType": "bool",
          "name": "isDeleted",
          "type": "bool"
        },
        {
          "internalType": "uint256",
          "name": "rating",
          "type": "uint256"
        },
        {
          "internalType": "uint256",
          "name": "ratingCount",
          "type": "uint256"
        }
      ],
      "stateMutability": "view",
      "type": "function",
      "constant": true
    },
    {
      "inputs": [],
      "name": "token",
      "outputs": [
        {
          "internalType": "contract IERC20",
          "name": "",
          "type": "address"
        }
      ],
      "stateMutability": "view",
      "type": "function",
      "constant": true
    },
    {
      "inputs": [
        {
          "internalType": "string",
          "name": "_name",
          "type": "string"
        },
        {
          "internalType": "string",
          "name": "_description",
          "type": "string"
        },
        {
          "internalType": "uint256",
          "name": "_price",
          "type": "uint256"
        },
        {
          "internalType": "string",
          "name": "_fileLink",
          "type": "string"
        }
      ],
      "name": "createListing",
      "outputs": [],
      "stateMutability": "nonpayable",
      "type": "function"
    },
    {
      "inputs": [
        {
          "internalType": "uint256",
          "name": "_id",
          "type": "uint256"
        }
      ],
      "name": "purchaseModel",
      "outputs": [],
      "stateMutability": "nonpayable",
      "type": "function"
    },
    {
      "inputs": [
        {
          "internalType": "uint256",
          "name": "_id",
          "type": "uint256"
        }
      ],
      "name": "deleteListing",
      "outputs": [],
      "stateMutability": "nonpayable",
      "type": "function"
    },
    {
      "inputs": [
        {
          "internalType": "uint256",
          "name": "_id",
          "type": "uint256"
        },
        {
          "internalType": "uint256",
          "name": "_rating",
          "type": "uint256"
        }
      ],
      "name": "rateModel",
      "outputs": [],
      "stateMutability": "nonpayable",
      "type": "function"
    },
    {
      "inputs": [
        {
          "internalType": "uint256",
          "name": "_id",
          "type": "uint256"
        }
      ],
      "name": "getModel",
      "outputs": [
        {
          "internalType": "uint256",
          "name": "",
          "type": "uint256"
        },
        {
          "internalType": "string",
          "name": "",
          "type": "string"
        },
        {
          "internalType": "string",
          "name": "",
          "type": "string"
        },
        {
          "internalType": "uint256",
          "name": "",
          "type": "uint256"
        },
        {
          "internalType": "address",
          "name": "",
          "type": "address"
        },
        {
          "internalType": "string",
          "name": "",
          "type": "string"
        },
        {
          "internalType": "bool",
          "name": "",
          "type": "bool"
        },
        {
          "internalType": "bool",
          "name": "",
          "type": "bool"
        },
        {
          "internalType": "uint256",
          "name": "",
          "type": "uint256"
        },
        {
          "internalType": "uint256",
          "name": "",
          "type": "uint256"
        }
      ],
      "stateMutability": "view",
      "type": "function",
      "constant": true
    },
    {
      "inputs": [],
      "name": "getModelsCount",
      "outputs": [
        {
          "internalType": "uint256",
          "name": "",
          "type": "uint256"
        }
      ],
      "stateMutability": "view",
      "type": "function",
      "constant": true
    }
  ],
  "bytecode": "0x60806040523480156200001157600080fd5b5060405162001bb338038062001bb3833981810160405281019062000037919062000096565b80600260006101000a81548173ffffffffffffffffffffffffffffffffffffffff021916908373ffffffffffffffffffffffffffffffffffffffff1602179055505062000110565b6000815190506200009081620000f6565b92915050565b600060208284031215620000a957600080fd5b6000620000b9848285016200007f565b91505092915050565b6000620000cf82620000d6565b9050919050565b600073ffffffffffffffffffffffffffffffffffffffff82169050919050565b6200010181620000c2565b81146200010d57600080fd5b50565b611a9380620001206000396000f3fe608060405234801561001057600080fd5b50600436106100935760003560e01c806399c64cc81161006657806399c64cc814610144578063c6a645fe14610160578063dc7468621461017e578063e6282c6e1461019a578063fc0c546a146101b657610093565b8063298fbde0146100985780636a030ca9146100b65780636d361694146100ef578063744409c614610128575b600080fd5b6100a06101d4565b6040516100ad919061160f565b60405180910390f35b6100d060048036038101906100cb9190611183565b6101dd565b6040516100e69a9998979695949392919061162a565b60405180910390f35b61010960048036038101906101049190611183565b610403565b60405161011f9a9998979695949392919061162a565b60405180910390f35b610142600480360381019061013d91906110d8565b6106f6565b005b61015e600480360381019061015991906111ac565b610921565b005b610168610ad9565b604051610175919061160f565b60405180910390f35b61019860048036038101906101939190611183565b610adf565b005b6101b460048036038101906101af9190611183565b610d68565b005b6101be610f54565b6040516101cb91906114d4565b60405180910390f35b60008054905090565b6001602052806000526040600020600091509050806000015490806001018054610206906118e7565b80601f0160208091040260200160405190810160405280929190818152602001828054610232906118e7565b801561027f5780601f106102545761010080835404028352916020019161027f565b820191906000526020600020905b81548152906001019060200180831161026257829003601f168201915b505050505090806002018054610294906118e7565b80601f01602080910402602001604051908101604052809291908181526020018280546102c0906118e7565b801561030d5780601f106102e25761010080835404028352916020019161030d565b820191906000526020600020905b8154815290600101906020018083116102f057829003601f168201915b5050505050908060030154908060040160009054906101000a900473ffffffffffffffffffffffffffffffffffffffff169080600501805461034e906118e7565b80601f016020809104026020016040519081016040528092919081815260200182805461037a906118e7565b80156103c75780601f1061039c576101008083540402835291602001916103c7565b820191906000526020600020905b8154815290600101906020018083116103aa57829003601f168201915b5050505050908060060160009054906101000a900460ff16908060060160019054906101000a900460ff1690806007015490806008015490508a565b600060608060008060606000806000806000600160008d8152602001908152602001600020604051806101400160405290816000820154815260200160018201805461044e906118e7565b80601f016020809104026020016040519081016040528092919081815260200182805461047a906118e7565b80156104c75780601f1061049c576101008083540402835291602001916104c7565b820191906000526020600020905b8154815290600101906020018083116104aa57829003601f168201915b505050505081526020016002820180546104e0906118e7565b80601f016020809104026020016040519081016040528092919081815260200182805461050c906118e7565b80156105595780601f1061052e57610100808354040283529160200191610559565b820191906000526020600020905b81548152906001019060200180831161053c57829003601f168201915b50505050508152602001600382015481526020016004820160009054906101000a900473ffffffffffffffffffffffffffffffffffffffff1673ffffffffffffffffffffffffffffffffffffffff1673ffffffffffffffffffffffffffffffffffffffff1681526020016005820180546105d2906118e7565b80601f01602080910402602001604051908101604052809291908181526020018280546105fe906118e7565b801561064b5780601f106106205761010080835404028352916020019161064b565b820191906000526020600020905b81548152906001019060200180831161062e57829003601f168201915b505050505081526020016006820160009054906101000a900460ff161515151581526020016006820160019054906101000a900460ff16151515158152602001600782015481526020016008820154815250509050806000015181602001518260400151836060015184608001518560a001518660c001518760e001518861010001518961012001519a509a509a509a509a509a509a509a509a509a50509193959799509193959799565b60008211610739576040517f08c379a0000000000000000000000000000000000000000000000000000000008152600401610730906115ef565b60405180910390fd5b60008081548092919061074b90611919565b919050555060405180610140016040528060005481526020018581526020018481526020018381526020013373ffffffffffffffffffffffffffffffffffffffff16815260200182815260200160001515815260200160001515815260200160008152602001600081525060016000805481526020019081526020016000206000820151816000015560208201518160010190805190602001906107f0929190610f7a565b50604082015181600201908051906020019061080d929190610f7a565b506060820151816003015560808201518160040160006101000a81548173ffffffffffffffffffffffffffffffffffffffff021916908373ffffffffffffffffffffffffffffffffffffffff16021790555060a082015181600501908051906020019061087b929190610f7a565b5060c08201518160060160006101000a81548160ff02191690831515021790555060e08201518160060160016101000a81548160ff021916908315150217905550610100820151816007015561012082015181600801559050503373ffffffffffffffffffffffffffffffffffffffff166000547f4d156348485dab5d6b7b6cfc46e110b762c82cee09fbf0c509838107b74f5c2e60405160405180910390a350505050565b60008211801561093357506000548211155b610972576040517f08c379a0000000000000000000000000000000000000000000000000000000008152600401610969906114ef565b60405180910390fd5b60018110158015610984575060058111155b6109c3576040517f08c379a00000000000000000000000000000000000000000000000000000000081526004016109ba9061158f565b60405180910390fd5b60006001600084815260200190815260200160002090508060060160019054906101000a900460ff1615610a2c576040517f08c379a0000000000000000000000000000000000000000000000000000000008152600401610a23906115cf565b60405180910390fd5b600081600801548260070154610a4291906117df565b90508281610a509190611758565b9050816008016000815480929190610a6790611919565b9190505550816008015481610a7c91906117ae565b82600701819055503373ffffffffffffffffffffffffffffffffffffffff16847f049431fe74f8ae6cc014f81a7d856c04e44cb6b1992e2a8863bcba3752c4e27485604051610acb919061160f565b60405180910390a350505050565b60005481565b600081118015610af157506000548111155b610b30576040517f08c379a0000000000000000000000000000000000000000000000000000000008152600401610b27906114ef565b60405180910390fd5b60006001600083815260200190815260200160002090508060060160019054906101000a900460ff1615610b99576040517f08c379a0000000000000000000000000000000000000000000000000000000008152600401610b90906115cf565b60405180910390fd5b8060060160009054906101000a900460ff1615610beb576040517f08c379a0000000000000000000000000000000000000000000000000000000008152600401610be29061154f565b60405180910390fd5b600260009054906101000a900473ffffffffffffffffffffffffffffffffffffffff1673ffffffffffffffffffffffffffffffffffffffff166323b872dd338360040160009054906101000a900473ffffffffffffffffffffffffffffffffffffffff1684600301546040518463ffffffff1660e01b8152600401610c729392919061149d565b602060405180830381600087803b158015610c8c57600080fd5b505af1158015610ca0573d6000803e3d6000fd5b505050506040513d601f19601f82011682018060405250810190610cc491906110af565b610d03576040517f08c379a0000000000000000000000000000000000000000000000000000000008152600401610cfa9061156f565b60405180910390fd5b60018160060160006101000a81548160ff0219169083151502179055503373ffffffffffffffffffffffffffffffffffffffff16827fc8581808129c51c0416692a5ea1b58e080ae8f21e384eefe2f2dc85d231d12ba60405160405180910390a35050565b600081118015610d7a57506000548111155b610db9576040517f08c379a0000000000000000000000000000000000000000000000000000000008152600401610db0906114ef565b60405180910390fd5b60006001600083815260200190815260200160002090508060040160009054906101000a900473ffffffffffffffffffffffffffffffffffffffff1673ffffffffffffffffffffffffffffffffffffffff163373ffffffffffffffffffffffffffffffffffffffff1614610e62576040517f08c379a0000000000000000000000000000000000000000000000000000000008152600401610e599061152f565b60405180910390fd5b8060060160009054906101000a900460ff1615610eb4576040517f08c379a0000000000000000000000000000000000000000000000000000000008152600401610eab9061150f565b60405180910390fd5b8060060160019054906101000a900460ff1615610f06576040517f08c379a0000000000000000000000000000000000000000000000000000000008152600401610efd906115af565b60405180910390fd5b60018160060160016101000a81548160ff021916908315150217905550817f092b4ffb93d921248d7da2d747d314c29d0cc428d4566b4e3b400cbf21f5e3eb60405160405180910390a25050565b600260009054906101000a900473ffffffffffffffffffffffffffffffffffffffff1681565b828054610f86906118e7565b90600052602060002090601f016020900481019282610fa85760008555610fef565b82601f10610fc157805160ff1916838001178555610fef565b82800160010185558215610fef579182015b82811115610fee578251825591602001919060010190610fd3565b5b509050610ffc9190611000565b5090565b5b80821115611019576000816000905550600101611001565b5090565b600061103061102b8461170c565b6116db565b90508281526020810184848401111561104857600080fd5b6110538482856118a5565b509392505050565b60008151905061106a81611a2f565b92915050565b600082601f83011261108157600080fd5b813561109184826020860161101d565b91505092915050565b6000813590506110a981611a46565b92915050565b6000602082840312156110c157600080fd5b60006110cf8482850161105b565b91505092915050565b600080600080608085870312156110ee57600080fd5b600085013567ffffffffffffffff81111561110857600080fd5b61111487828801611070565b945050602085013567ffffffffffffffff81111561113157600080fd5b61113d87828801611070565b935050604061114e8782880161109a565b925050606085013567ffffffffffffffff81111561116b57600080fd5b61117787828801611070565b91505092959194509250565b60006020828403121561119557600080fd5b60006111a38482850161109a565b91505092915050565b600080604083850312156111bf57600080fd5b60006111cd8582860161109a565b92505060206111de8582860161109a565b9150509250929050565b6111f181611839565b82525050565b6112008161184b565b82525050565b61120f81611881565b82525050565b60006112208261173c565b61122a8185611747565b935061123a8185602086016118b4565b61124381611a1e565b840191505092915050565b600061125b601083611747565b91507f496e76616c6964206d6f64656c204944000000000000000000000000000000006000830152602082019050919050565b600061129b601a83611747565b91507f43616e6e6f742064656c657465206120736f6c64206d6f64656c0000000000006000830152602082019050919050565b60006112db601e83611747565b91507f4f6e6c792073656c6c65722063616e2064656c657465206c697374696e6700006000830152602082019050919050565b600061131b601283611747565b91507f4d6f64656c20616c726561647920736f6c6400000000000000000000000000006000830152602082019050919050565b600061135b601583611747565b91507f546f6b656e207472616e73666572206661696c656400000000000000000000006000830152602082019050919050565b600061139b601e83611747565b91507f526174696e67206d757374206265206265747765656e203120616e64203500006000830152602082019050919050565b60006113db601783611747565b91507f4c697374696e6720616c72656164792064656c657465640000000000000000006000830152602082019050919050565b600061141b601283611747565b91507f4c697374696e672069732064656c6574656400000000000000000000000000006000830152602082019050919050565b600061145b601c83611747565b91507f5072696365206d7573742062652067726561746572207468616e2030000000006000830152602082019050919050565b61149781611877565b82525050565b60006060820190506114b260008301866111e8565b6114bf60208301856111e8565b6114cc604083018461148e565b949350505050565b60006020820190506114e96000830184611206565b92915050565b600060208201905081810360008301526115088161124e565b9050919050565b600060208201905081810360008301526115288161128e565b9050919050565b60006020820190508181036000830152611548816112ce565b9050919050565b600060208201905081810360008301526115688161130e565b9050919050565b600060208201905081810360008301526115888161134e565b9050919050565b600060208201905081810360008301526115a88161138e565b9050919050565b600060208201905081810360008301526115c8816113ce565b9050919050565b600060208201905081810360008301526115e88161140e565b9050919050565b600060208201905081810360008301526116088161144e565b9050919050565b6000602082019050611624600083018461148e565b92915050565b600061014082019050611640600083018d61148e565b8181036020830152611652818c611215565b90508181036040830152611666818b611215565b9050611675606083018a61148e565b61168260808301896111e8565b81810360a08301526116948188611215565b90506116a360c08301876111f7565b6116b060e08301866111f7565b6116be61010083018561148e565b6116cc61012083018461148e565b9b9a5050505050505050505050565b6000604051905081810181811067ffffffffffffffff82111715611702576117016119ef565b5b8060405250919050565b600067ffffffffffffffff821115611727576117266119ef565b5b601f19601f8301169050602081019050919050565b600081519050919050565b600082825260208201905092915050565b600061176382611877565b915061176e83611877565b9250827fffffffffffffffffffffffffffffffffffffffffffffffffffffffffffffffff038211156117a3576117a2611962565b5b828201905092915050565b60006117b982611877565b91506117c483611877565b9250826117d4576117d3611991565b5b828204905092915050565b60006117ea82611877565b91506117f583611877565b9250817fffffffffffffffffffffffffffffffffffffffffffffffffffffffffffffffff048311821515161561182e5761182d611962565b5b828202905092915050565b600061184482611857565b9050919050565b60008115159050919050565b600073ffffffffffffffffffffffffffffffffffffffff82169050919050565b6000819050919050565b600061188c82611893565b9050919050565b600061189e82611857565b9050919050565b82818337600083830152505050565b60005b838110156118d25780820151818401526020810190506118b7565b838111156118e1576000848401525b50505050565b600060028204905060018216806118ff57607f821691505b60208210811415611913576119126119c0565b5b50919050565b600061192482611877565b91507fffffffffffffffffffffffffffffffffffffffffffffffffffffffffffffffff82141561195757611956611962565b5b600182019050919050565b7f4e487b7100000000000000000000000000000000000000000000000000000000600052601160045260246000fd5b7f4e487b7100000000000000000000000000000000000000000000000000000000600052601260045260246000fd5b7f4e487b7100000000000000000000000000000000000000000000000000000000600052602260045260246000fd5b7f4e487b7100000000000000000000000000000000000000000000000000000000600052604160045260246000fd5b6000601f19601f8301169050919050565b611a388161184b565b8114611a4357600080fd5b50565b611a4f81611877565b8114611a5a57600080fd5b5056fea2646970667358221220adce19d2d2db9bd99cf8f91aee5692e9a22479524570ba41439febea6962a68a64736f6c63430008000033",
  "immutableReferences": {},
  "source": "// SPDX-License-Identifier: MIT\r\npragma solidity ^0.8.0;\r\n\r\nimport \"@openzeppelin/contracts/token/ERC20/IERC20.sol\";\r\n\r\ncontract AIMarketplace {\r\n    struct Model {\r\n        uint256 id;\r\n        string name;\r\n        string description;\r\n        uint256 price;      //    UGT\r\n        address seller;\r\n        string fileLink;    //     ( IPFS )\r\n        bool isSold;        // , ,   \r\n        bool isDeleted;     // , ,   \r\n        uint256 rating;     //    (,   1-5)\r\n        uint256 ratingCount; //  \r\n    }\r\n\r\n    uint256 public modelCount;\r\n    mapping(uint256 => Model) public models;\r\n\r\n    IERC20 public token; //  ERC20  (UGT)\r\n\r\n    //    \r\n    event ModelCreated(uint256 indexed id, address indexed seller);\r\n    event ModelPurchased(uint256 indexed id, address indexed buyer);\r\n    event ModelDeleted(uint256 indexed id);\r\n    event ModelRated(uint256 indexed id, uint256 rating, address indexed rater);\r\n\r\n    constructor(address _tokenAddress) {\r\n        token = IERC20(_tokenAddress);\r\n    }\r\n\r\n    //   \r\n    function createListing(\r\n        string memory _name,\r\n        string memory _description,\r\n        uint256 _price,\r\n        string memory _fileLink\r\n    ) public {\r\n        require(_price > 0, \"Price must be greater than 0\");\r\n        modelCount++;\r\n        models[modelCount] = Model({\r\n            id: modelCount,\r\n            name: _name,\r\n            description: _description,\r\n            price: _price,\r\n            seller: msg.sender,\r\n            fileLink: _fileLink,\r\n            isSold: false,\r\n            isDeleted: false,\r\n            rating: 0,\r\n            ratingCount: 0\r\n        });\r\n        emit ModelCreated(modelCount, msg.sender);\r\n    }\r\n\r\n    //  \r\n    function purchaseModel(uint256 _id) public {\r\n        require(_id > 0 && _id <= modelCount, \"Invalid model ID\");\r\n        Model storage model = models[_id];\r\n        require(!model.isDeleted, \"Listing is deleted\");\r\n        require(!model.isSold, \"Model already sold\");\r\n\r\n        require(\r\n            token.transferFrom(msg.sender, model.seller, model.price),\r\n            \"Token transfer failed\"\r\n        );\r\n\r\n        model.isSold = true;\r\n        emit ModelPurchased(_id, msg.sender);\r\n    }\r\n\r\n    //   (        )\r\n    function deleteListing(uint256 _id) public {\r\n        require(_id > 0 && _id <= modelCount, \"Invalid model ID\");\r\n        Model storage model = models[_id];\r\n        require(msg.sender == model.seller, \"Only seller can delete listing\");\r\n        require(!model.isSold, \"Cannot delete a sold model\");\r\n        require(!model.isDeleted, \"Listing already deleted\");\r\n        model.isDeleted = true;\r\n        emit ModelDeleted(_id);\r\n    }\r\n\r\n    //  \r\n    function rateModel(uint256 _id, uint256 _rating) public {\r\n        require(_id > 0 && _id <= modelCount, \"Invalid model ID\");\r\n        require(_rating >= 1 && _rating <= 5, \"Rating must be between 1 and 5\");\r\n\r\n        Model storage model = models[_id];\r\n        require(!model.isDeleted, \"Listing is deleted\");\r\n        //       ,   .\r\n        //      , : require(!model.isSold, \"Cannot rate a sold model\");\r\n\r\n        //   :\r\n        uint256 totalRating = model.rating * model.ratingCount;\r\n        totalRating += _rating;\r\n        model.ratingCount++;\r\n        model.rating = totalRating / model.ratingCount;\r\n\r\n        emit ModelRated(_id, _rating, msg.sender);\r\n    }\r\n\r\n    //    \r\n    function getModel(uint256 _id)\r\n        public\r\n        view\r\n        returns (\r\n            uint256,\r\n            string memory,\r\n            string memory,\r\n            uint256,\r\n            address,\r\n            string memory,\r\n            bool,\r\n            bool,\r\n            uint256,\r\n            uint256\r\n        )\r\n    {\r\n        Model memory model = models[_id];\r\n        return (\r\n            model.id,\r\n            model.name,\r\n            model.description,\r\n            model.price,\r\n            model.seller,\r\n            model.fileLink,\r\n            model.isSold,\r\n            model.isDeleted,\r\n            model.rating,\r\n            model.ratingCount\r\n        );\r\n    }\r\n\r\n    //   \r\n    function getModelsCount() public view returns (uint256) {\r\n        return modelCount;\r\n    }\r\n}\r\n",
  "sourcePath": "C:\\Users\\Danil\\Desktop\\ass4 Blockchainn truffleGanache\\contracts\\AIModelMarketplace.sol",
  "compiler": {
    "name": "solc",
    "version": "0.8.0+commit.c7dfd78e.Emscripten.clang"
  },
  "schemaVersion": "3.4.16",
  "updatedAt": "2025-02-08T15:33:55.177Z",
  "networkType": "ethereum",
  "devdoc": {
    "kind": "dev",
    "methods": {},
    "version": 1
  },
  "userdoc": {
    "kind": "user",
    "methods": {},
    "version": 1
  }
}