{
  "contractName": "UniversityToken",
  "abi": [
    {
      "inputs": [],
      "stateMutability": "nonpayable",
      "type": "constructor"
    },
    {
      "anonymous": false,
      "inputs": [
        {
          "indexed": true,
          "internalType": "address",
          "name": "owner",
          "type": "address"
        },
        {
          "indexed": true,
          "internalType": "address",
          "name": "spender",
          "type": "address"
        },
        {
          "indexed": false,
          "internalType": "uint256",
          "name": "value",
          "type": "uint256"
        }
      ],
      "name": "Approval",
      "type": "event"
    },
    {
      "anonymous": false,
      "inputs": [
        {
          "indexed": true,
          "internalType": "address",
          "name": "from",
          "type": "address"
        },
        {
          "indexed": true,
          "internalType": "address",
          "name": "to",
          "type": "address"
        },
        {
          "indexed": false,
          "internalType": "uint256",
          "name": "value",
          "type": "uint256"
        }
      ],
      "name": "Transfer",
      "type": "event"
    },
    {
      "inputs": [
        {
          "internalType": "address",
          "name": "owner",
          "type": "address"
        },
        {
          "internalType": "address",
          "name": "spender",
          "type": "address"
        }
      ],
      "name": "allowance",
      "outputs": [
        {
          "internalType": "uint256",
          "name": "",
          "type": "uint256"
        }
      ],
      "stateMutability": "view",
      "type": "function",
      "constant": true
    },
    {
      "inputs": [
        {
          "internalType": "address",
          "name": "spender",
          "type": "address"
        },
        {
          "internalType": "uint256",
          "name": "amount",
          "type": "uint256"
        }
      ],
      "name": "approve",
      "outputs": [
        {
          "internalType": "bool",
          "name": "",
          "type": "bool"
        }
      ],
      "stateMutability": "nonpayable",
      "type": "function"
    },
    {
      "inputs": [
        {
          "internalType": "address",
          "name": "account",
          "type": "address"
        }
      ],
      "name": "balanceOf",
      "outputs": [
        {
          "internalType": "uint256",
          "name": "",
          "type": "uint256"
        }
      ],
      "stateMutability": "view",
      "type": "function",
      "constant": true
    },
    {
      "inputs": [],
      "name": "decimals",
      "outputs": [
        {
          "internalType": "uint8",
          "name": "",
          "type": "uint8"
        }
      ],
      "stateMutability": "view",
      "type": "function",
      "constant": true
    },
    {
      "inputs": [
        {
          "internalType": "address",
          "name": "spender",
          "type": "address"
        },
        {
          "internalType": "uint256",
          "name": "subtractedValue",
          "type": "uint256"
        }
      ],
      "name": "decreaseAllowance",
      "outputs": [
        {
          "internalType": "bool",
          "name": "",
          "type": "bool"
        }
      ],
      "stateMutability": "nonpayable",
      "type": "function"
    },
    {
      "inputs": [
        {
          "internalType": "address",
          "name": "spender",
          "type": "address"
        },
        {
          "internalType": "uint256",
          "name": "addedValue",
          "type": "uint256"
        }
      ],
      "name": "increaseAllowance",
      "outputs": [
        {
          "internalType": "bool",
          "name": "",
          "type": "bool"
        }
      ],
      "stateMutability": "nonpayable",
      "type": "function"
    },
    {
      "inputs": [
        {
          "internalType": "address",
          "name": "",
          "type": "address"
        }
      ],
      "name": "lastTransactionTimestamps",
      "outputs": [
        {
          "internalType": "uint256",
          "name": "",
          "type": "uint256"
        }
      ],
      "stateMutability": "view",
      "type": "function",
      "constant": true
    },
    {
      "inputs": [],
      "name": "name",
      "outputs": [
        {
          "internalType": "string",
          "name": "",
          "type": "string"
        }
      ],
      "stateMutability": "view",
      "type": "function",
      "constant": true
    },
    {
      "inputs": [],
      "name": "owner",
      "outputs": [
        {
          "internalType": "address",
          "name": "",
          "type": "address"
        }
      ],
      "stateMutability": "view",
      "type": "function",
      "constant": true
    },
    {
      "inputs": [],
      "name": "symbol",
      "outputs": [
        {
          "internalType": "string",
          "name": "",
          "type": "string"
        }
      ],
      "stateMutability": "view",
      "type": "function",
      "constant": true
    },
    {
      "inputs": [],
      "name": "totalSupply",
      "outputs": [
        {
          "internalType": "uint256",
          "name": "",
          "type": "uint256"
        }
      ],
      "stateMutability": "view",
      "type": "function",
      "constant": true
    },
    {
      "inputs": [
        {
          "internalType": "address",
          "name": "recipient",
          "type": "address"
        },
        {
          "internalType": "uint256",
          "name": "amount",
          "type": "uint256"
        }
      ],
      "name": "transfer",
      "outputs": [
        {
          "internalType": "bool",
          "name": "",
          "type": "bool"
        }
      ],
      "stateMutability": "nonpayable",
      "type": "function"
    },
    {
      "inputs": [
        {
          "internalType": "address",
          "name": "sender",
          "type": "address"
        },
        {
          "internalType": "address",
          "name": "recipient",
          "type": "address"
        },
        {
          "internalType": "uint256",
          "name": "amount",
          "type": "uint256"
        }
      ],
      "name": "transferFrom",
      "outputs": [
        {
          "internalType": "bool",
          "name": "",
          "type": "bool"
        }
      ],
      "stateMutability": "nonpayable",
      "type": "function"
    },
    {
      "inputs": [
        {
          "internalType": "address",
          "name": "account",
          "type": "address"
        }
      ],
      "name": "getLastTransactionTimestamp",
      "outputs": [
        {
          "internalType": "string",
          "name": "",
          "type": "string"
        }
      ],
      "stateMutability": "view",
      "type": "function",
      "constant": true
    },
    {
      "inputs": [
        {
          "internalType": "address",
          "name": "account",
          "type": "address"
        }
      ],
      "name": "getTransactionSender",
      "outputs": [
        {
          "internalType": "address",
          "name": "",
          "type": "address"
        }
      ],
      "stateMutability": "view",
      "type": "function",
      "constant": true
    }
  ],
  "bytecode": "0x60806040523480156200001157600080fd5b506040518060400160405280601481526020017f556e697665727369747947726f7570546f6b656e0000000000000000000000008152506040518060400160405280600381526020017f5547540000000000000000000000000000000000000000000000000000000000815250816003908051906020019062000096929190620002c3565b508060049080519060200190620000af929190620002c3565b505050620000f033620000c76200013760201b60201c565b600a620000d59190620004ce565b6107d0620000e491906200060b565b6200014060201b60201c565b33600560006101000a81548173ffffffffffffffffffffffffffffffffffffffff021916908373ffffffffffffffffffffffffffffffffffffffff16021790555062000724565b60006012905090565b600073ffffffffffffffffffffffffffffffffffffffff168273ffffffffffffffffffffffffffffffffffffffff161415620001b3576040517f08c379a0000000000000000000000000000000000000000000000000000000008152600401620001aa90620003c6565b60405180910390fd5b620001c760008383620002b960201b60201c565b8060026000828254620001db919062000416565b92505081905550806000808473ffffffffffffffffffffffffffffffffffffffff1673ffffffffffffffffffffffffffffffffffffffff168152602001908152602001600020600082825462000232919062000416565b925050819055508173ffffffffffffffffffffffffffffffffffffffff16600073ffffffffffffffffffffffffffffffffffffffff167fddf252ad1be2c89b69c2b068fc378daa952ba7f163c4a11628f55a4df523b3ef83604051620002999190620003e8565b60405180910390a3620002b560008383620002be60201b60201c565b5050565b505050565b505050565b828054620002d19062000683565b90600052602060002090601f016020900481019282620002f5576000855562000341565b82601f106200031057805160ff191683800117855562000341565b8280016001018555821562000341579182015b828111156200034057825182559160200191906001019062000323565b5b50905062000350919062000354565b5090565b5b808211156200036f57600081600090555060010162000355565b5090565b600062000382601f8362000405565b91507f45524332303a206d696e7420746f20746865207a65726f2061646472657373006000830152602082019050919050565b620003c0816200066c565b82525050565b60006020820190508181036000830152620003e18162000373565b9050919050565b6000602082019050620003ff6000830184620003b5565b92915050565b600082825260208201905092915050565b600062000423826200066c565b915062000430836200066c565b9250827fffffffffffffffffffffffffffffffffffffffffffffffffffffffffffffffff03821115620004685762000467620006b9565b5b828201905092915050565b6000808291508390505b6001851115620004c5578086048111156200049d576200049c620006b9565b5b6001851615620004ad5780820291505b8081029050620004bd8562000717565b94506200047d565b94509492505050565b6000620004db826200066c565b9150620004e88362000676565b9250620005177fffffffffffffffffffffffffffffffffffffffffffffffffffffffffffffffff84846200051f565b905092915050565b60008262000531576001905062000604565b8162000541576000905062000604565b81600181146200055a576002811462000565576200059b565b600191505062000604565b60ff8411156200057a5762000579620006b9565b5b8360020a915084821115620005945762000593620006b9565b5b5062000604565b5060208310610133831016604e8410600b8410161715620005d55782820a905083811115620005cf57620005ce620006b9565b5b62000604565b620005e4848484600162000473565b92509050818404811115620005fe57620005fd620006b9565b5b81810290505b9392505050565b600062000618826200066c565b915062000625836200066c565b9250817fffffffffffffffffffffffffffffffffffffffffffffffffffffffffffffffff0483118215151615620006615762000660620006b9565b5b828202905092915050565b6000819050919050565b600060ff82169050919050565b600060028204905060018216806200069c57607f821691505b60208210811415620006b357620006b2620006e8565b5b50919050565b7f4e487b7100000000000000000000000000000000000000000000000000000000600052601160045260246000fd5b7f4e487b7100000000000000000000000000000000000000000000000000000000600052602260045260246000fd5b60008160011c9050919050565b611acd80620007346000396000f3fe608060405234801561001057600080fd5b50600436106100f55760003560e01c806370a0823111610097578063a457c2d711610066578063a457c2d7146102b0578063a9059cbb146102e0578063dd62ed3e14610310578063f8856bf214610340576100f5565b806370a082311461021457806387fc29ed146102445780638da5cb5b1461027457806395d89b4114610292576100f5565b806323b872dd116100d357806323b872dd14610166578063313ce5671461019657806339509351146101b457806359118589146101e4576100f5565b806306fdde03146100fa578063095ea7b31461011857806318160ddd14610148575b600080fd5b610102610370565b60405161010f9190611613565b60405180910390f35b610132600480360381019061012d919061112a565b610402565b60405161013f91906115f8565b60405180910390f35b610150610420565b60405161015d9190611755565b60405180910390f35b610180600480360381019061017b91906110db565b61042a565b60405161018d91906115f8565b60405180910390f35b61019e610522565b6040516101ab9190611770565b60405180910390f35b6101ce60048036038101906101c9919061112a565b61052b565b6040516101db91906115f8565b60405180910390f35b6101fe60048036038101906101f99190611076565b6105d7565b60405161020b91906115dd565b60405180910390f35b61022e60048036038101906102299190611076565b61062b565b60405161023b9190611755565b60405180910390f35b61025e60048036038101906102599190611076565b610673565b60405161026b9190611755565b60405180910390f35b61027c61068b565b60405161028991906115dd565b60405180910390f35b61029a6106b1565b6040516102a79190611613565b60405180910390f35b6102ca60048036038101906102c5919061112a565b610743565b6040516102d791906115f8565b60405180910390f35b6102fa60048036038101906102f5919061112a565b61082e565b60405161030791906115f8565b60405180910390f35b61032a6004803603810190610325919061109f565b61084c565b6040516103379190611755565b60405180910390f35b61035a60048036038101906103559190611076565b6108d3565b6040516103679190611613565b60405180910390f35b60606003805461037f9061191f565b80601f01602080910402602001604051908101604052809291908181526020018280546103ab9061191f565b80156103f85780601f106103cd576101008083540402835291602001916103f8565b820191906000526020600020905b8154815290600101906020018083116103db57829003601f168201915b5050505050905090565b600061041661040f61096e565b8484610976565b6001905092915050565b6000600254905090565b6000610437848484610b41565b6000600160008673ffffffffffffffffffffffffffffffffffffffff1673ffffffffffffffffffffffffffffffffffffffff168152602001908152602001600020600061048261096e565b73ffffffffffffffffffffffffffffffffffffffff1673ffffffffffffffffffffffffffffffffffffffff16815260200190815260200160002054905082811015610502576040517f08c379a00000000000000000000000000000000000000000000000000000000081526004016104f9906116d5565b60405180910390fd5b6105168561050e61096e565b858403610976565b60019150509392505050565b60006012905090565b60006105cd61053861096e565b84846001600061054661096e565b73ffffffffffffffffffffffffffffffffffffffff1673ffffffffffffffffffffffffffffffffffffffff16815260200190815260200160002060008873ffffffffffffffffffffffffffffffffffffffff1673ffffffffffffffffffffffffffffffffffffffff168152602001908152602001600020546105c891906117b2565b610976565b6001905092915050565b6000806105e38361062b565b11610623576040517f08c379a000000000000000000000000000000000000000000000000000000000815260040161061a90611695565b60405180910390fd5b819050919050565b60008060008373ffffffffffffffffffffffffffffffffffffffff1673ffffffffffffffffffffffffffffffffffffffff168152602001908152602001600020549050919050565b60066020528060005260406000206000915090505481565b600560009054906101000a900473ffffffffffffffffffffffffffffffffffffffff1681565b6060600480546106c09061191f565b80601f01602080910402602001604051908101604052809291908181526020018280546106ec9061191f565b80156107395780601f1061070e57610100808354040283529160200191610739565b820191906000526020600020905b81548152906001019060200180831161071c57829003601f168201915b5050505050905090565b6000806001600061075261096e565b73ffffffffffffffffffffffffffffffffffffffff1673ffffffffffffffffffffffffffffffffffffffff16815260200190815260200160002060008573ffffffffffffffffffffffffffffffffffffffff1673ffffffffffffffffffffffffffffffffffffffff1681526020019081526020016000205490508281101561080f576040517f08c379a000000000000000000000000000000000000000000000000000000000815260040161080690611735565b60405180910390fd5b61082361081a61096e565b85858403610976565b600191505092915050565b600061084261083b61096e565b8484610b41565b6001905092915050565b6000600160008473ffffffffffffffffffffffffffffffffffffffff1673ffffffffffffffffffffffffffffffffffffffff16815260200190815260200160002060008373ffffffffffffffffffffffffffffffffffffffff1673ffffffffffffffffffffffffffffffffffffffff16815260200190815260200160002054905092915050565b60606000600660008473ffffffffffffffffffffffffffffffffffffffff1673ffffffffffffffffffffffffffffffffffffffff168152602001908152602001600020549050600081141561095d576040517f08c379a0000000000000000000000000000000000000000000000000000000008152600401610954906116b5565b60405180910390fd5b61096681610dc2565b915050919050565b600033905090565b600073ffffffffffffffffffffffffffffffffffffffff168373ffffffffffffffffffffffffffffffffffffffff1614156109e6576040517f08c379a00000000000000000000000000000000000000000000000000000000081526004016109dd90611715565b60405180910390fd5b600073ffffffffffffffffffffffffffffffffffffffff168273ffffffffffffffffffffffffffffffffffffffff161415610a56576040517f08c379a0000000000000000000000000000000000000000000000000000000008152600401610a4d90611655565b60405180910390fd5b80600160008573ffffffffffffffffffffffffffffffffffffffff1673ffffffffffffffffffffffffffffffffffffffff16815260200190815260200160002060008473ffffffffffffffffffffffffffffffffffffffff1673ffffffffffffffffffffffffffffffffffffffff168152602001908152602001600020819055508173ffffffffffffffffffffffffffffffffffffffff168373ffffffffffffffffffffffffffffffffffffffff167f8c5be1e5ebec7d5bd14f71427d1e84f3dd0314c0f7b2291e5b200ac8c7c3b92583604051610b349190611755565b60405180910390a3505050565b600073ffffffffffffffffffffffffffffffffffffffff168373ffffffffffffffffffffffffffffffffffffffff161415610bb1576040517f08c379a0000000000000000000000000000000000000000000000000000000008152600401610ba8906116f5565b60405180910390fd5b600073ffffffffffffffffffffffffffffffffffffffff168273ffffffffffffffffffffffffffffffffffffffff161415610c21576040517f08c379a0000000000000000000000000000000000000000000000000000000008152600401610c1890611635565b60405180910390fd5b610c2c838383610e86565b60008060008573ffffffffffffffffffffffffffffffffffffffff1673ffffffffffffffffffffffffffffffffffffffff16815260200190815260200160002054905081811015610cb2576040517f08c379a0000000000000000000000000000000000000000000000000000000008152600401610ca990611675565b60405180910390fd5b8181036000808673ffffffffffffffffffffffffffffffffffffffff1673ffffffffffffffffffffffffffffffffffffffff16815260200190815260200160002081905550816000808573ffffffffffffffffffffffffffffffffffffffff1673ffffffffffffffffffffffffffffffffffffffff1681526020019081526020016000206000828254610d4591906117b2565b925050819055508273ffffffffffffffffffffffffffffffffffffffff168473ffffffffffffffffffffffffffffffffffffffff167fddf252ad1be2c89b69c2b068fc378daa952ba7f163c4a11628f55a4df523b3ef84604051610da99190611755565b60405180910390a3610dbc848484610e8b565b50505050565b606060006301e1853e83610dd69190611808565b6107b2610de391906117b2565b9050600060016228206f6301e1853e86610dfd919061199a565b610e079190611808565b610e1191906117b2565b905060006001620151806228206f87610e2a919061199a565b610e349190611808565b610e3e91906117b2565b9050610e4981610e90565b610e5283610e90565b610e5b85610e90565b604051602001610e6d93929190611596565b6040516020818303038152906040529350505050919050565b505050565b505050565b60606000821415610ed8576040518060400160405280600181526020017f30000000000000000000000000000000000000000000000000000000000000008152509050611047565b600082905060005b60008214610f0a578080610ef390611951565b915050600a82610f039190611808565b9150610ee0565b60008167ffffffffffffffff811115610f4c577f4e487b7100000000000000000000000000000000000000000000000000000000600052604160045260246000fd5b6040519080825280601f01601f191660200182016040528015610f7e5781602001600182028036833780820191505090505b5090506000600183610f909190611839565b90505b6000861461103f57600a86610fa8919061199a565b6030610fb491906117b2565b60f81b828280610fc3906118f5565b935081518110610ffc577f4e487b7100000000000000000000000000000000000000000000000000000000600052603260045260246000fd5b60200101907effffffffffffffffffffffffffffffffffffffffffffffffffffffffffffff1916908160001a905350600a866110389190611808565b9550610f93565b819450505050505b919050565b60008135905061105b81611a69565b92915050565b60008135905061107081611a80565b92915050565b60006020828403121561108857600080fd5b60006110968482850161104c565b91505092915050565b600080604083850312156110b257600080fd5b60006110c08582860161104c565b92505060206110d18582860161104c565b9150509250929050565b6000806000606084860312156110f057600080fd5b60006110fe8682870161104c565b935050602061110f8682870161104c565b925050604061112086828701611061565b9150509250925092565b6000806040838503121561113d57600080fd5b600061114b8582860161104c565b925050602061115c85828601611061565b9150509250929050565b61116f8161186d565b82525050565b61117e8161187f565b82525050565b600061118f8261178b565b6111998185611796565b93506111a98185602086016118c2565b6111b281611a58565b840191505092915050565b60006111c88261178b565b6111d281856117a7565b93506111e28185602086016118c2565b80840191505092915050565b60006111fb602383611796565b91507f45524332303a207472616e7366657220746f20746865207a65726f206164647260008301527f65737300000000000000000000000000000000000000000000000000000000006020830152604082019050919050565b6000611261602283611796565b91507f45524332303a20617070726f766520746f20746865207a65726f20616464726560008301527f73730000000000000000000000000000000000000000000000000000000000006020830152604082019050919050565b60006112c7602683611796565b91507f45524332303a207472616e7366657220616d6f756e742065786365656473206260008301527f616c616e636500000000000000000000000000000000000000000000000000006020830152604082019050919050565b600061132d601e83611796565b91507f4e6f20746f6b656e732068656c642062792074686973206163636f756e7400006000830152602082019050919050565b600061136d601583611796565b91507f4e6f207472616e73616374696f6e7320666f756e6400000000000000000000006000830152602082019050919050565b60006113ad602883611796565b91507f45524332303a207472616e7366657220616d6f756e742065786365656473206160008301527f6c6c6f77616e63650000000000000000000000000000000000000000000000006020830152604082019050919050565b6000611413602583611796565b91507f45524332303a207472616e736665722066726f6d20746865207a65726f20616460008301527f64726573730000000000000000000000000000000000000000000000000000006020830152604082019050919050565b6000611479602483611796565b91507f45524332303a20617070726f76652066726f6d20746865207a65726f2061646460008301527f72657373000000000000000000000000000000000000000000000000000000006020830152604082019050919050565b60006114df602583611796565b91507f45524332303a2064656372656173656420616c6c6f77616e63652062656c6f7760008301527f207a65726f0000000000000000000000000000000000000000000000000000006020830152604082019050919050565b60006115456001836117a7565b91507f2f000000000000000000000000000000000000000000000000000000000000006000830152600182019050919050565b611581816118ab565b82525050565b611590816118b5565b82525050565b60006115a282866111bd565b91506115ad82611538565b91506115b982856111bd565b91506115c482611538565b91506115d082846111bd565b9150819050949350505050565b60006020820190506115f26000830184611166565b92915050565b600060208201905061160d6000830184611175565b92915050565b6000602082019050818103600083015261162d8184611184565b905092915050565b6000602082019050818103600083015261164e816111ee565b9050919050565b6000602082019050818103600083015261166e81611254565b9050919050565b6000602082019050818103600083015261168e816112ba565b9050919050565b600060208201905081810360008301526116ae81611320565b9050919050565b600060208201905081810360008301526116ce81611360565b9050919050565b600060208201905081810360008301526116ee816113a0565b9050919050565b6000602082019050818103600083015261170e81611406565b9050919050565b6000602082019050818103600083015261172e8161146c565b9050919050565b6000602082019050818103600083015261174e816114d2565b9050919050565b600060208201905061176a6000830184611578565b92915050565b60006020820190506117856000830184611587565b92915050565b600081519050919050565b600082825260208201905092915050565b600081905092915050565b60006117bd826118ab565b91506117c8836118ab565b9250827fffffffffffffffffffffffffffffffffffffffffffffffffffffffffffffffff038211156117fd576117fc6119cb565b5b828201905092915050565b6000611813826118ab565b915061181e836118ab565b92508261182e5761182d6119fa565b5b828204905092915050565b6000611844826118ab565b915061184f836118ab565b925082821015611862576118616119cb565b5b828203905092915050565b60006118788261188b565b9050919050565b60008115159050919050565b600073ffffffffffffffffffffffffffffffffffffffff82169050919050565b6000819050919050565b600060ff82169050919050565b60005b838110156118e05780820151818401526020810190506118c5565b838111156118ef576000848401525b50505050565b6000611900826118ab565b91506000821415611914576119136119cb565b5b600182039050919050565b6000600282049050600182168061193757607f821691505b6020821081141561194b5761194a611a29565b5b50919050565b600061195c826118ab565b91507fffffffffffffffffffffffffffffffffffffffffffffffffffffffffffffffff82141561198f5761198e6119cb565b5b600182019050919050565b60006119a5826118ab565b91506119b0836118ab565b9250826119c0576119bf6119fa565b5b828206905092915050565b7f4e487b7100000000000000000000000000000000000000000000000000000000600052601160045260246000fd5b7f4e487b7100000000000000000000000000000000000000000000000000000000600052601260045260246000fd5b7f4e487b7100000000000000000000000000000000000000000000000000000000600052602260045260246000fd5b6000601f19601f8301169050919050565b611a728161186d565b8114611a7d57600080fd5b50565b611a89816118ab565b8114611a9457600080fd5b5056fea2646970667358221220c6be039289f7c1f69bbe3811e76436f9fd03e333fdbd382fb8c45cf35a6f2d0264736f6c63430008000033",
  "immutableReferences": {},
  "source": "// SPDX-License-Identifier: MIT\r\npragma solidity ^0.8.0;\r\n\r\nimport \"@openzeppelin/contracts/token/ERC20/ERC20.sol\";\r\n\r\ncontract UniversityToken is ERC20 {\r\n    address public owner;\r\n    mapping(address => uint256) public lastTransactionTimestamps;\r\n\r\n    constructor() ERC20(\"UniversityGroupToken\", \"UGT\") {\r\n        _mint(msg.sender, 2000 * 10 ** decimals());\r\n        owner = msg.sender;\r\n    }\r\n\r\n    function getLastTransactionTimestamp(address account) public view returns (string memory) {\r\n        uint256 timestamp = lastTransactionTimestamps[account];\r\n        require(timestamp != 0, \"No transactions found\");\r\n        return _convertTimestampToDateTime(timestamp);\r\n    }\r\n\r\n    function getTransactionSender(address account) public view returns (address) {\r\n        require(balanceOf(account) > 0, \"No tokens held by this account\");\r\n        return account;\r\n    }\r\n\r\n    function _convertTimestampToDateTime(uint256 timestamp) internal pure returns (string memory) {\r\n        uint256 year = 1970 + timestamp / 31556926;\r\n        uint256 month = (timestamp % 31556926) / 2629743 + 1;\r\n        uint256 day = (timestamp % 2629743) / 86400 + 1;\r\n        return string(abi.encodePacked(uint2str(day), \"/\", uint2str(month), \"/\", uint2str(year)));\r\n    }\r\n\r\n    function uint2str(uint256 _i) internal pure returns (string memory) {\r\n        if (_i == 0) {\r\n            return \"0\";\r\n        }\r\n        uint256 j = _i;\r\n        uint256 len;\r\n        while (j != 0) {\r\n            len++;\r\n            j /= 10;\r\n        }\r\n        bytes memory bstr = new bytes(len);\r\n        uint256 k = len - 1;\r\n        while (_i != 0) {\r\n            bstr[k--] = bytes1(uint8(48 + _i % 10));\r\n            _i /= 10;\r\n        }\r\n        return string(bstr);\r\n    }\r\n}\r\n",
  "sourcePath": "C:\\Users\\Danil\\Desktop\\ass4 Blockchainn truffleGanache\\contracts\\UniversityToken.sol",
  "compiler": {
    "name": "solc",
    "version": "0.8.0+commit.c7dfd78e.Emscripten.clang"
  },
  "schemaVersion": "3.4.16",
  "updatedAt": "2025-02-08T15:33:55.164Z",
  "networkType": "ethereum",
  "devdoc": {
    "kind": "dev",
    "methods": {
      "allowance(address,address)": {
        "details": "See {IERC20-allowance}."
      },
      "approve(address,uint256)": {
        "details": "See {IERC20-approve}. Requirements: - `spender` cannot be the zero address."
      },
      "balanceOf(address)": {
        "details": "See {IERC20-balanceOf}."
      },
      "decimals()": {
        "details": "Returns the number of decimals used to get its user representation. For example, if `decimals` equals `2`, a balance of `505` tokens should be displayed to a user as `5.05` (`505 / 10 ** 2`). Tokens usually opt for a value of 18, imitating the relationship between Ether and Wei. This is the value {ERC20} uses, unless this function is overridden; NOTE: This information is only used for _display_ purposes: it in no way affects any of the arithmetic of the contract, including {IERC20-balanceOf} and {IERC20-transfer}."
      },
      "decreaseAllowance(address,uint256)": {
        "details": "Atomically decreases the allowance granted to `spender` by the caller. This is an alternative to {approve} that can be used as a mitigation for problems described in {IERC20-approve}. Emits an {Approval} event indicating the updated allowance. Requirements: - `spender` cannot be the zero address. - `spender` must have allowance for the caller of at least `subtractedValue`."
      },
      "increaseAllowance(address,uint256)": {
        "details": "Atomically increases the allowance granted to `spender` by the caller. This is an alternative to {approve} that can be used as a mitigation for problems described in {IERC20-approve}. Emits an {Approval} event indicating the updated allowance. Requirements: - `spender` cannot be the zero address."
      },
      "name()": {
        "details": "Returns the name of the token."
      },
      "symbol()": {
        "details": "Returns the symbol of the token, usually a shorter version of the name."
      },
      "totalSupply()": {
        "details": "See {IERC20-totalSupply}."
      },
      "transfer(address,uint256)": {
        "details": "See {IERC20-transfer}. Requirements: - `recipient` cannot be the zero address. - the caller must have a balance of at least `amount`."
      },
      "transferFrom(address,address,uint256)": {
        "details": "See {IERC20-transferFrom}. Emits an {Approval} event indicating the updated allowance. This is not required by the EIP. See the note at the beginning of {ERC20}. Requirements: - `sender` and `recipient` cannot be the zero address. - `sender` must have a balance of at least `amount`. - the caller must have allowance for ``sender``'s tokens of at least `amount`."
      }
    },
    "version": 1
  },
  "userdoc": {
    "kind": "user",
    "methods": {},
    "version": 1
  }
}